:020000040800F2
:10000000F8B0002029030008773D0008E92D00081A
:10001000753D0008490A00085D5B0008000000000B
:10002000000000000000000000000000690200085D
:10003000D10D000800000000C5020008AD53000803
:100040004303000843030008430300084303000878
:100050004303000843030008D30D000843030008CE
:1000600043030008D90D0008DF0D00084303000812
:10007000690A00084303000843030008430300081B
:100080004303000843030008430300084303000838
:100090004D0A00084303000843030008E50D00086B
:1000A0004303000843030008430300084303000818
:1000B0004303000843030008430300084303000808
:1000C00043030008430300084303000843030008F8
:1000D000430300084303000843030008015A0008D3
:1000E00043030008430300084303000843030008D8
:1000F00043030008430300084303000843030008C8
:1001000043030008430300084303000843030008B7
:1001100043030008430300084303000843030008A7
:1001200043030008750A0008810A00084303000819
:100130004303000843030008430300084303000887
:10014000590A00084303000843030008430300085A
:10015000430300084303000843030008B55A00089E
:100160004303000843030008430300084303000857
:100170004303000843030008430300080000000095
:10018000430300084303000800F002F800F05CF8A5
:100190000AA090E8000C82448344AAF10107DA45E2
:1001A00001D100F051F8AFF2090EBAE80F0013F0D8
:1001B000010F18BFFB1A43F001031847288A0000FB
:1001C000488A00000A444FF0000C10F8013B13F07D
:1001D000070408BF10F8014B1D1108BF10F8015BA0
:1001E000641E05D010F8016B641E01F8016BF9D193
:1001F00013F0080F1EBF10F8014BAD1C0C1B09D1EA
:100200006D1E58BF01F801CBFAD505E014F8016B5B
:1002100001F8016B6D1EF9D59142D6D370470000ED
:100220000023002400250026103A28BF78C1FBD8FF
:10023000520728BF30C148BF0B6070471FB508F098
:1002400058FC1FBD10B510BD00F002FA1146FFF7B3
:10025000F5FF06F02DFD00F020FA03B4FFF7F2FFE2
:1002600003BC00F023FA00002C4B19680868B0E8C2
:10027000F04F80F30988BFF36F8F4FF0000080F3D9
:10028000118870470000000008480068006880F38B
:1002900008884FF0000080F3148862B661B6BFF39F
:1002A0004F8FBFF36F8F00DF00BF00BF08ED00E08E
:1002B000DFF80C00016841F470010160704700BF75
:1002C00088ED00E0EFF30980BFF36F8F134B1A68DE
:1002D0001EF0100F08BF20ED108A20E9F04F1060CB
:1002E00009B44FF0500080F31188BFF34F8FBFF374
:1002F0006F8F07F0B9FC4FF0000080F3118809BC44
:1003000019680868B0E8F04F1EF0100F08BFB0EC95
:10031000108A80F30988BFF36F8F70472400002094
:10032000EFF30580704700000948804709480047FF
:10033000FEE7FEE7FEE7FEE7FEE7FEE7FEE7FEE795
:10034000FEE7FEE704480549054A064B70470000F2
:100350004954000889010008F8700020F8B0002016
:10036000F8900020F890002053EA020C00F0698019
:100370002DE9F04B4FF00006002B1FBFB3FA83F5B9
:1003800003FA05F424FA05F65E4012BF1643B2FAEA
:1003900082F502FA05F4C5F120051EBF22FA05FC1C
:1003A00044EA0C04203556EA044C4FEA144418BFC2
:1003B000641C4FF000084FF00009904271EB030CF1
:1003C00039D3002919BFB1FA81F701FA07F6B0FA5B
:1003D00080F700FA07F6C7F120071EBF20FA07FCD6
:1003E00046EA0C062037B6FBF4FCA7EB0507103FE6
:1003F00007F01F0BCBF120060CFA0BFB2CFA06F6CC
:1004000044BFB3460026202FA4BF5E464FF0000B2A
:100410005BEA060C08BF4FF0010B19EB0B09ABFBB5
:10042000027C48EB0608C01B06FB02CC0BFB03CC8E
:1004300071EB0C01C1E70B46024641464846BDE858
:10044000F08B13B54FF000004FF00001AFF30080C8
:10045000BDE81C40704710B5431C02E010F8011BBA
:1004600071B18107FAD14FF0013202C88C1A8C4366
:1004700014EAC211F9D0C01A0A0603D0C01E10BD7A
:10048000C01A10BD0A0401D0801E10BD0902FCD0A4
:10049000401E10BD032A40F2308010F0030C00F023
:1004A000158011F8013BBCF1020F624498BF11F8AE
:1004B00001CB00F8013B38BF11F8013BA2F1040267
:1004C00098BF00F801CB38BF00F8013B11F00303DF
:1004D00000F02580083AC0F0088051F8043B083A43
:1004E00051F804CBA0E80810F5E7121D5CBF51F8E5
:1004F000043B40F8043BAFF30080D20724BF11F85F
:10050000013B11F801CB48BF11F8012B24BF00F8C3
:10051000013B00F801CB48BF00F8012B704710B534
:10052000203AC0F00B80B1E81850203AA0E81850EB
:10053000B1E81850A0E81850BFF4F5AF5FEA027CAC
:1005400024BFB1E81850A0E8185044BF18C918C01B
:10055000BDE810405FEA827C24BF51F8043B40F8BC
:10056000043B08BF7047D20728BF31F8023B48BFA1
:1005700011F8012B28BF20F8023B48BF00F8012BDF
:10058000704702F0FF0343EA032242EA024200F00E
:1005900037B84FF0000200B513469446964620390E
:1005A00022BFA0E80C50A0E80C50B1F12001BFF42C
:1005B000F7AF090728BFA0E80C5048BF0CC05DF892
:1005C00004EB890028BF40F8042B08BF704748BFE0
:1005D00020F8022B11F0804F18BF00F8012B704754
:1005E00070477047704710B500F02AF8006810BDDA
:1005F00010B5044600F024F8046010BD4FF000026E
:100600000429C0F0128010F0030C3FF4C4AFCCF109
:10061000040CBCF1020F18BF00F8012BA8BF20F892
:10062000022BA1EB0C01FFF7B6BF5FEAC17C24BF30
:1006300000F8012B00F8012B48BF00F8012B704790
:10064000004870479870002000487047987000205C
:100650007546FFF7F9FFAE4605006946534620F0A0
:100660000700854618B020B5FFF76CFEBDE82040B6
:100670004FF000064FF000074FF000084FF0000B5E
:1006800021F00701AC46ACE8C009ACE8C009ACE811
:10069000C009ACE8C0098D46704710B50446AFF3F9
:1006A00000802046BDE81040FFF7D7BD0149182063
:1006B000ABBEFEE72600020070470000B7EE000A5E
:1006C00080ED000A9FED040A80ED010A80ED020A28
:1006D00080ED030A704700000000000093EC033A2D
:1006E000D2EC031A91EC030A03F0A8B801221021FE
:1006F000014801F09DB900000000024000221021D5
:10070000014801F095B90000000002407047000068
:1007100001221146014801F08BB90000000402409B
:1007200000220121014801F083B9000000040240C9
:1007300030B5437804781B021BB2234300EE103A15
:100740001B4CB8EEC00AD4ED000A20EE200A81ED61
:10075000000AC37885781B021BB22B4300EE103AC7
:10076000D4ED000AB8EEC00A20EE200A81ED010A9D
:10077000437904791B021BB2234300EE103AB8EE12
:10078000C00A20EE200ADFED0B0A81ED020A017A91
:10079000C3790904807941EA0321014300EE101A6C
:1007A000B8EE400A20EE200A82ED000A30BD0000BB
:1007B0000C01002000401C42704706F0A9BA05F069
:1007C0006BBF000010B542780378120212B21A43D0
:1007D00000EE102A124BB8EEC00AD3ED010A20EE4B
:1007E000200A81ED000AC2788478120212B22243F4
:1007F00000EE102AD3ED010AB8EEC00A20EE200A5E
:1008000081ED010A42790079120212B2024300EE30
:10081000102AB8EEC00A20EE200A81ED020A10BDAF
:100820000C01002010B5FFF771FFFFF7C5FF05F0C1
:10083000ABFC08B1802402E005F012FC044605F090
:1008400071FE10B144F0400010BD05F0FDFD2043E5
:1008500010BD00002DE9FC410746002016460D465C
:1008600000900190FFF74AFF922000F0BDF80622A9
:100870006946122000F09AF8FFF738FF9DF8010052
:100880009DF80010000200B2084300EE100A464C2A
:10089000B8EEC00AD4ED000A20EE200A85ED000A69
:1008A0009DF803009DF80210000200B2084300EE1C
:1008B000100AD4ED000AB8EEC00A20EE200A85ED39
:1008C000010A9DF805009DF80410000200B20843DB
:1008D00000EE100AB8EEC00A20EE200A85ED020AEA
:1008E000FFF71EFF08226946002000F05FF8FFF7BF
:1008F0000FFF9DF800000F2830D19DF803009DF8F0
:100900000210000200B2084300EE100AD4ED010A02
:10091000B8EEC00A20EE200A87ED000A9DF8050017
:100920009DF80410000200B2084300EE100AD4ED56
:10093000010AB8EEC00A20EE200A87ED010A9DF8F0
:1009400007009DF80610000200B2084300EE100AEE
:10095000B8EEC00A20EE200A87ED020AFFF7CEFEAD
:10096000A22000F041F802226946222000F01EF881
:10097000FFF7BCFE9DF800009DF80110C00040EAA2
:100980005110B0F5806F01DBA0F5006000EE100A99
:10099000B4EE001AF8EEC00AB3EE070A00EE810AC0
:1009A00086ED000ABDE8FC810C01002070B51446FC
:1009B0000D4640F0800000F017F806E0552000F0EA
:1009C00013F8641E05F8010BE4B2002CF6D170BDDB
:1009D00010B50C4640F0800000F006F8552000F0FD
:1009E00003F8207010BD000001B582B04FF47A709A
:1009F0000090012301AA02A9024801F08BFE9DF894
:100A000004000EBD9008002002784078D20042EA2F
:100A10005010B0F5806F01DBA0F5006000EE100A09
:100A2000B4EE001AF8EEC00AB3EE070A00EE810A2F
:100A300081ED000A704710B50C46FFF7D5FF204640
:100A4000BDE81040FFF7D0BFFEE70000014800F00E
:100A5000DABA0000EC070020014800F0D4BA000028
:100A60001408002005F0C4BD014800F073BD00006B
:100A7000A80A0020014800F06DBD0000080B00200E
:100A80002DE9F05FAB48AC4BAC4CC06CAA4DAB4E03
:100A9000A94F0068A849DFF8A492DFF89CA2DFF80C
:100AA0009CB2DFF894E2A54A483B6034183518360A
:100AB000303F09F178090AF1300A4FF4006C0BF16C
:100AC000300BAEF1180E884223D99B49543926E0E9
:100AD000A84233D14FF020080AE0504535D1E04616
:100AE00006E000BF4FF4001802E000BF4FF00068BE
:100AF00011EA080F7CD09049884253D9904205D022
:100B0000984203D0A04201D0A8422FD14FF0200C30
:100B100045E08A49A831884203D98749583909688C
:100B200005E08649483188428549F8D949689042AC
:100B3000D0D09842CED0A042CCD0C9E7B042CED0DF
:100B4000B842CCD04845CAD0C7E75845CAD070454E
:100B5000C8D0DFF8E88108F190084045C2D0DFF83E
:100B6000D88108F148084045C0D1BBE7B04216D053
:100B7000B84214D0484512D0504510D0584509D03D
:100B8000704507D06D499031884203D06A49483199
:100B9000884202D14FF4001C01E04FF0006C66481F
:100BA0004C382AE06549A831884229D9904205D0BD
:100BB000984203D0A04201D0A84202D14FF0200CAD
:100BC00019E0B04217D0B84215D0484513D050456F
:100BD00011D0584509D0704507D058499031884206
:100BE00003D055494831884203D14FF4001C02E03C
:100BF0009DE04FF0006C50485038C0F800C052E003
:100C00004E494831884227D9904205D0984203D0B6
:100C1000A04201D0A84202D14FF0200C18E0B0420F
:100C200016D0B84214D0484512D0504510D058457F
:100C300009D0704507D041499031884203D03E49E0
:100C40004831884202D14FF4001C01E04FF0006CA3
:100C50003B48C0F80CC026E0904205D0984203D033
:100C6000A04201D0A84202D14FF0200C18E0B042BF
:100C700016D0B84214D0484512D0504510D058452F
:100C800009D0704507D02D499031884203D02A49B8
:100C90004831884202D14FF4001C01E04FF0006C53
:100CA0002748C0F808C0274C207880070CD520784A
:100CB00020F002002070207840F004002070012213
:100CC0001146214800F0B4FE6078204D80070CD515
:100CD000607820F002006070607840F0040060707E
:100CE00001221021284600F0A3FEA07880070CD531
:100CF000A07820F00200A070A07840F00400A0705E
:100D000001221021284600F093FE05F0B1FD207865
:100D100040070CD5207820F004002070207840F0A7
:100D2000080020700A48016841F001010160BDE837
:100D3000F09F0000900800205864024010600240BC
:100D400000600240A80000200004024000000240B1
:100D5000103C014001681823CAB2103AB2FBF3F20A
:100D6000054B6FF30901032A9B5CC36500D9091D7C
:100D70008165084670470000788B000810B5014671
:100D800000208B698A6A4FF0C07453B1B3F5005FDD
:100D900015D072B1012A0CD0022A0AD0032A09D137
:100DA00004E01AB1012A06D0022A03D1C96AC90196
:100DB00000D5012010BDC96AA142FAD010BD002A99
:100DC000F7D0012AF2D0022AF3D0032AF3D010BDC3
:100DD0007047012000F048BD082000F045BD1020FC
:100DE00000F042BD202000F03FBD704790F8202069
:100DF000012A07D0022A05D0416A41F480214162CC
:100E000001207047006842690A4342610020704730
:100E100010B590F82020012A07D0022A05D0416A97
:100E200041F480214162012010BD3B48D0F80022EE
:100E300042F00102C0F80022D0F8002222F47C52D5
:100E4000C0F80022D0F800224B6A42EA0322C0F820
:100E500000220A7D02F01F0301229A40D0F81C32C2
:100E60009343C0F81C32CB69B3B9D0F80C3293432A
:100E7000C0F80C328C894B6864F31F434C6900EB5B
:100E8000C404C4F840320C890B6864F31F434C69F6
:100E900000EBC404C4F84432CB69012B16D1D0F85E
:100EA0000C321343C0F80C320C884B6864F31F43B8
:100EB0004C6900EBC404C4F840320C89CB6864F37D
:100EC0001F434C6900EBC404C4F844328B69002B07
:100ED000D0F804320ED01343C0F804320B69002B53
:100EE000D0F8143208D01343C0F81432096A01292B
:100EF00004D008E09343EFE79343F5E7D0F81C12E2
:100F00001143C0F81C12D0F8001221F00101C0F802
:100F10000012002010BD000000640040704730B592
:100F200090F82040012C05D0022C03D0416A41F4F6
:100F300080215DE00468002955D02469A40754D0BD
:100F40004FF4D874056804EB01142D5915F004050D
:100F5000956005682D594ED0ED08556005682C59EF
:100F6000C4F34004D4604FF4DA74056804EB011450
:100F70002D5905F00F05156105682D59C5F3072595
:100F8000956105682C59240C54614FF4DC72046897
:100F900002EB0112A4581C700468A458240A5C7067
:100FA0000468A458240C9C700468A258120EDA70CD
:100FB0004FF4DE72046802EB0112A4581C7104683D
:100FC000A458240A5C710468A458240C9C71046819
:100FD000A258120EDA71006881B1016941F0200156
:100FE0000161002030BDE468A8E7416A41F40011C6
:100FF0004162012030BD6D0D1560AFE7C16841F061
:101000002001C160EDE72DE9F05F0546006800248E
:101010004669D0F804908768D0F80CB0D0F810A0DA
:10102000D0F81880F10748D0F90714D00121816069
:10103000B80703D5284600F086FA0CE0780702D5F9
:101040004FF4006407E0380702D54FF4805402E003
:10105000284600F077FAF80516D529684FF4807015
:101060008860B80503D5284600F06FFA0CE07805D3
:1010700002D544F4005407E0380502D544F4804416
:1010800002E0284600F060FAF80316D529684FF40C
:1010900080308860B80303D5284600F058FA0CE089
:1010A000780302D544F4004407E0380302D544F441
:1010B000803402E0284600F049FA300707D55FEA9D
:1010C000CB6004D52968102044F40074C860700710
:1010D0004FF0080707D55FEA0B7004D52868C76092
:1010E000284600F099F9B00706D52868C06880073F
:1010F00002D0284600F092F9700607D55FEACA6070
:1011000004D52968102044F480640861B00607D52E
:101110005FEA0A7004D528680761284600F0E2F902
:10112000F00606D528680069800702D0284600F03E
:10113000DAF9B00308D55FEAC96005D5296810203F
:101140004860284600F0D0F9F00307D55FEA09703F
:1011500004D528684760284600F0FAF9300446D5DF
:101160005FEA497040D5F00504D55FEAC87001D048
:1011700044F00104B00504D55FEA887001D544F05D
:101180000204700504D55FEA487001D544F00404F8
:10119000300529D518F0700F26D008F070004028CF
:1011A00015D006DC102809D020280AD0302816D106
:1011B0000AE050280ED0602811D10EE044F0080457
:1011C0000DE044F010040AE044F0200407E044F08D
:1011D000400404E044F0800401E044F48074286892
:1011E000816921F070018161296804204860002C28
:1011F00005D0686A204368622846FFF78FFEBDE885
:10120000F09F70B5040003D094F8200010B104E002
:10121000012070BD204600F081F82068016821F0AF
:101220000201016000F00AFC0546052604E000F01A
:1012300005FC401B0A2811D8206840688007F6D4B6
:101240002068016841F00101016000F0F7FB0546EC
:101250000BE000F0F3FB401B0A2806D9606A40F45B
:101260000030606284F82060D2E720684068C007E0
:10127000EFD0207E0128206801683DD021F0800158
:101280000160607E01282068016838D021F04001AB
:101290000160A07E01282068016833D021F0200180
:1012A0000160E07E0128206801682ED041F0100125
:1012B0000160207F01282068016829D021F0080101
:1012C0000160607F01282068016824D021F00401BA
:1012D0000160D4E902010843D4E904121143084330
:1012E0006168491E08432168C861002060620120CE
:1012F00084F82000002070BD41F08001C0E741F07B
:101300004001C5E741F02001CAE721F01001CFE715
:1013100041F00801D4E741F00401D9E7F0B587B006
:10132000044614216846FFF734F9364B3648DFF897
:10133000D0E01968D4F800C0334A032502260927F3
:1013400010300024491CF44522D11960012907D12D
:10135000016841F000710160006800F000700590C4
:10136000106840F0080010601068CDE9005600F0E9
:101370000800CDE9047069462448CDE9024500F033
:101380007FFA00220521142000F05CFE142032E0D8
:10139000DFF87CE0F44530D1D0F800C04CF0806C30
:1013A000C0F800C0D0F800C001290CF0806CCDF866
:1013B00014C0196007D1016841F000710160006834
:1013C00000F000700590106840F002001060106896
:1013D00002AB00F0020005906020CDE9000683E832
:1013E000B00069460B4800F04BFA0022052140206E
:1013F00000F028FE402000F017FE07B0F0BD00000E
:10140000006400401000002030380240000C024010
:1014100000680040000402407047000070B50446B8
:101420002B482C4D844222D12B4B2A4600212046AA
:10143000FFF775FD2868A0F50070013806D0012877
:1014400008D002280AD0032811D10BE0234A2249F0
:1014500000200AE0214A2049012006E01F4A1E49D7
:10146000022002E01D4A1C49032005F0ECF91C484B
:1014700084422CD1184B174A00212046FFF74FFD1C
:10148000286805281CD007DC032815D004281ED1A5
:10149000124A1149012016E0A0F50070013807D06A
:1014A000012814D10D4A0C49BDE8704005F0B8B9C7
:1014B0000A4A09490020F7E7084A0749022002E0E2
:1014C000064A05490020BDE8704005F0FFB870BD30
:1014D000EC0700207C7000203C010020146F0020ED
:1014E00014080020704770477047000070B504462C
:1014F00090F82000012804D0606A40F40020606267
:1015000018E0022084F820002068016821F0010121
:10151000016000F093FA05460EE000BF00F08EFA7D
:10152000401B0A2808D9606A40F400306062052038
:1015300084F82000012070BD20684068C007EDD10C
:10154000606270BD70477047704770477047704762
:10155000704700002DE9F84304464FF00009CDF82C
:10156000009063484FF41651A56D0068B0FBF1F789
:101570002E6894F85C10082000FA01F131420FD077
:1015800021680A6852070BD50A6822F004020A6033
:1015900094F85C108840A860606D40F001006065C0
:1015A00094F85C104FF0010808FA01F0304208D0BE
:1015B00021684969090604D5A860606D40F0020001
:1015C000606594F85C1004208840304208D021689F
:1015D0000968890704D5A860606D40F00400606563
:1015E00094F85C1010208840304218D021680968B7
:1015F000090714D5A86020680168490304D500686C
:10160000000308D5A16C07E00168C90503D401688F
:1016100021F008010160216C09B12046884794F847
:101620005C1020208840304231D021680968C9060A
:101630002DD5A86094F8350005282068016806D0EB
:10164000490347D5006800031DD4616C1CE021F0FC
:10165000160101602068416921F080014161206C20
:1016600008B9A06C20B12068016821F00801016070
:1016700094F85C103F208840A86084F8349084F887
:101680003580216D1FE0E16B09B120468847606D10
:1016900000282BD0606DC00714D0052084F83500D9
:1016A0002068016821F0010101600098401C009051
:1016B000B84203D820680068C007F6D184F8349097
:1016C00084F83580E16C002910D001B02046BDE8D7
:1016D000F04308470168C905D5D4016821F010011D
:1016E000016084F8349084F83580CCE7BDE8F88355
:1016F000200000202DE9F041044600F09FF9064645
:101700005CB1002584F83450022084F8350020684C
:10171000016821F0010101600DE00120BDE8F081C8
:1017200000F08CF9801B052805D920206065032076
:1017300084F83500F2E720680068C007F0D122681D
:10174000116820480140D4E901031843D4E9033665
:101750003343184363691843A3691843E369184383
:10176000236A18430843616A042903D1D4E90B139F
:1017700019430843106020684069666A20F0070139
:1017800030460E43012704280CD1A06A0643E06AC4
:1017900040B12046FFF7F2FA20B14020606584F89E
:1017A0003570BAE7206846612046FFF7D3FA94F80F
:1017B0005C203F2191408160656584F83570002090
:1017C000ACE700003F8010F010B5244C10281AD070
:1017D000202821D008282AD0012813D106F002FEA3
:1017E00001280FD004F10C01206906F061F9E068CE
:1017F000002807D01A494FF080500860BFF34F8F80
:10180000BFF36F8F10BD607840F001006070A0786A
:1018100040F00100A07003E0207840F0010020704B
:1018200020790028EED0BDE8104005F021B8E0781E
:1018300040F00100E070E07810F00100E070E1D0CD
:10184000E07820F00100E070E07840F00200E07005
:10185000BDE81040034805F075B90000A80000205D
:1018600004ED00E0F86D0020044910B50A6802425A
:1018700002D00860FFF7A8FF10BD0000143C014033
:101880002DE9F84FDFF87CB100224FF001084FF04E
:10189000030A4FF00F090BF1040E00BF0B6808FAA2
:1018A00002F42340A3426ED14D68022D01D0122DC7
:1018B0000ED1D50800EB850CDCF820505607F70E4A
:1018C00009FA07F6B5430E69BE402E43CCF82060F6
:1018D000066855000F790AFA05FC07F0030726EAA7
:1018E0000C06AF40374307604E68012E05D0022E2C
:1018F00003D0112E01D0122E0ED18668CF6826EAB1
:101900000C06AF40374387604668A6430C79C4F3A2
:101910000014944034434460C6688C6826EA0C0680
:10192000AC403443C4604C68E40065D5364C25684F
:1019300045F480452560246822F0030504F48044C2
:101940000094324C2E19D6F8084895072F0F09FA43
:1019500007F5AC432E4DA84201D1002524E02D4DC2
:10196000A84201D101251FE02B4DA84201D102253B
:101970001AE02A4DA84201D1032515E0284DA842BE
:1019800002D1042510E037E0264DA84201D10525FB
:101990000AE0254DA84201D1062505E0234DA842C5
:1019A00001D1072500E00825BD402543C6F80858A9
:1019B000DBF800405D464E689C43F60300D51C43AF
:1019C0002C60DEF8004075464E689C43B60300D597
:1019D0001C432C600B4D08352C684E689C43F60266
:1019E00000D51C432C60074D0C352C684E689C4379
:1019F000B60200D51C432C60521C102AFFF44EAFD7
:101A0000BDE8F88F003C01404438024000300140FE
:101A1000000002400004024000080240000C0240A6
:101A2000001002400014024000180240001C024056
:101A30000AB1816170470904FBE700000148806832
:101A4000704700001400002070B504001BD094F80B
:101A50003D00002520B984F83C50204600F042FAB1
:101A6000242084F83D002068016821F00101016014
:101A700000F0B2FB4D4A6168914201D84C4900E048
:101A80004C49884201D2012070BD4B492368B0FB0C
:101A9000F1F15E6826F03F060E435E606368934294
:101AA00006D94FF4967359434FF47A73B1FBF3F1AF
:101AB0002368491C1E6A26F03F063143196261689B
:101AC000914210D84900401EB0FBF1F2521CC2F303
:101AD0000B02042A01D2042022E0B0FBF1F0401CEA
:101AE000C0F30B001CE0A368F3B301EBC10202EBEF
:101AF0000116421EB2FBF6F2521C42F4804212055D
:101B000049D093B301EBC10202EB0111401EB0FBBF
:101B1000F1F0401CC0F30B0040F4804040F4004062
:101B20002168CA694CF6FF739A431043C861D4E92F
:101B30000701084321680A6822F0C00210430860C8
:101B4000D4E9030101432068826848F2FF339A43D5
:101B500011438160D4E9050108432168CA6822F075
:101B6000FF021043C86001E00EE016E02068016843
:101B700041F0010101602564202084F83D002563C7
:101B800084F83E50002070BD01EB4106421EB2FBBE
:101B9000F6F2521CB3E70120C2E701EB4101401EFF
:101BA000B0FBF1F0401CC0F30B00B7E7A0860100CA
:101BB00080841E0000093D0040420F002DE9FF4FC8
:101BC00083B09A46DDE9119793460446DDF84080DC
:101BD000FFF734FF054694F83D00202870D1192303
:101BE000012271492046009501F0FAF90028F5D14B
:101BF00094F83C00012863D0012084F83C00206860
:101C00000168C90703D1016841F001010160206842
:101C1000016821F400610160222084F83D00402029
:101C200084F83E0000262664C4F82480A4F82A9094
:101C3000608D20855D48E062CDE9007553465A46C7
:101C40002046049901F0E8F800287CD1208DD0B11D
:101C5000012821D00228206824D0416980690090A1
:101C6000208D032869D801282BD0514902283B46F2
:101C70004FF00002009559D08846204601F0B0F997
:101C8000002860D13CE020684169816900910168C9
:101C900041F40071016077E02068016821F48061FF
:101CA0000160F0E7016821F480610160206801684B
:101CB00041F400610160206841698069009063E03F
:101CC0006FE02A463946204601F009FA98BB2068A1
:101CD0000069616A08704EE02068016841F4007193
:101CE000016020680069616A0870606A401C606277
:101CF000218D491E2185618D491E6185216838E04D
:101D00002068016821F48061016020680069616ACF
:101D10000870606A401C6062208D401E2085608DC6
:101D2000401E60853B46002241460095204601F05A
:101D300057F900B9D0E706E0FFE72A4639462046C2
:101D400001F0CDF918B1012007B0BDE8F08F20688F
:101D50000069616A0870606A401C6062218D491EDA
:101D60002185618D491E618521684A69D2435207E8
:101D70000AD409690170606A401C6062208D401EAF
:101D80002085608D401E6085208D00287FF468AF1F
:101D9000202084F83D0084F83E6084F83C600020F8
:101DA000D2E70220D0E70000020010000000FFFF91
:101DB000040001002DE9FF4F83B09A46DDE9119739
:101DC00093460446DDF84080FFF738FE054694F858
:101DD0003D0020287FD1192301224049204600954B
:101DE00001F0FEF8002876D194F83C00012872D06A
:101DF000012084F83C0020680168C90703D101680C
:101E000041F0010101602068016821F40061016076
:101E1000212084F83D00402084F83E0000262664FE
:101E2000C4F82480A4F82A90608D20852C48E062B4
:101E3000CDE9007553465A462046049901F060F8F2
:101E400070B930E02A463946204601F07BF958B196
:101E5000206C042804D12068016841F400710160FD
:101E6000012007B0BDE8F08F606A21680078086142
:101E7000606A401C6062218D491E89B22185628D95
:101E8000521E628522685369DB435B070BD469B13C
:101E900000781061606A401C6062208D401E2085C1
:101EA000608D401E6085208D0028CBD12A463946A2
:101EB000204601F06FF80028CAD154F83D0B0168A4
:101EC00041F400710160202004F81E09E67766776E
:101ED0000020C6E7FFE70220C3E700000200100071
:101EE0000000FFFFF0B587B0044614216846FEF7F6
:101EF00050FB1A49206888422DD11948016841F0E9
:101F000004010160016801F004010591016841F0DC
:101F1000010101600068122400F0010005904FF4F7
:101F200000700125032604278DE8F10069460D485D
:101F3000FFF7A6FC28028DE8F10069460A48FFF782
:101F40009FFC07481030016841F4000101600068FF
:101F500000F40000059007B0F0BD0000005C0040F8
:101F60003038024000080240000002400248816808
:101F70000278114481607047140000200B4810B5AE
:101F8000016841F400710160016841F48061016001
:101F9000016841F480710160032000F073F80F20A4
:101FA00000F006F800F024F8002010BD003C0240CC
:101FB00070B50D4D04464FF47A712878B1FBF0F0FE
:101FC0000A490968B1FBF0F000F095FC48B9102C03
:101FD00007D200222146501E00F034F800206C6029
:101FE00070BD012070BD0000140000202000002002
:101FF0000C4882B0016841F480410160006800F43F
:10200000804000900748001F016841F08051016046
:102010000068002200F0805000900F21901E02B056
:1020200000F010B844380240002809DB00F01F021D
:10203000012191404009800000F1E020C0F800112A
:1020400070470000F0B40E4B1B680C46C3F302232C
:10205000C3F10705042D00D90425191D072901D254
:10206000002300E0DB1E012606FA05F1491E21408F
:1020700099409E40761E16403143F0BC03F082BD6D
:102080000CED00E0064900F0070208684FF6FF0378
:10209000184040EA0220034A1043086070470000DD
:1020A0000CED00E00000FA052DE9F0470E460500B2
:1020B00065D0DFF81481D8F80000F7B200F00F0007
:1020C000B04207D288F80070D8F8000000F00F0086
:1020D000B04254D128683D4C810712D5400703D542
:1020E000206840F4E05020602878000703D520687D
:1020F00040F4604020602068A96820F0F0000843A8
:1021000020602878C0072DD0304968680839012838
:1021100012D0022813D0032811D00968890700299A
:102120002DDA216821F0030101432160FFF786FCCD
:10213000814641F2883A0EE009688903EFE70968B1
:102140008901ECE7FFF77AFCA0EB0901514502D9C0
:102150000320BDE8F0872068696800F00C00B0EB50
:10216000810FEFD1D8F80010404601F00F01B142C5
:1021700007D90770006800F00F00B04201D00120BD
:10218000E7E72878400705D52068E96820F4E050A3
:10219000084320602878000706D52068296920F4C4
:1021A000604040EAC100206000F036F82168084A2B
:1021B000C1F30311515CC840064908600F20FFF7C6
:1021C000F7FE0020C5E70000003C0240083802404E
:1021D000808B000820000020044805490068096839
:1021E000044AC1F38221515CC8407047200000209E
:1021F00008380240908B00080448054900680968C7
:10220000044AC1F34231515CC840704720000020AD
:1022100008380240908B0008154810B5006810F08F
:102220000C02144813D01449042A0FD0082A0ED1E6
:102230000F4C241F2268236802F03F025B0207D57F
:102240002068C0F38810A0FB010106E0084610BD1D
:102250002168C1F38811A1FB00010023FEF784F877
:102260002168C1F30141491C4900B0FBF1F010BDE8
:10227000083802400024F400001BB7002DE9F84F95
:10228000050076D02878DFF8F8B2BE4CC00749D0F8
:10229000DBF800105846C1F38101012908D000681D
:1022A000C0F3810002280AD1201D0068400206D533
:1022B0002068800336D568680028E2D032E068687C
:1022C000B0F5803F10D0B0F5A02F206810D020F4DA
:1022D00080302060206820F4802020606868A0B1F1
:1022E000FFF7ACFB06460CE0206840F48030F4E7D2
:1022F00040F480202060F7E7FFF7A0FB801B6428F4
:1023000073D820688003F7D50CE0FFF797FB0646EB
:1023100005E000BFFFF792FB801B6428F0D820681F
:102320008003F7D42878DFF8608280074FF0000937
:102330003ED5DBF80010584611F00C0F09D00068AC
:10234000C0F3810002280BD18D48001F00684002B5
:1023500006D42068800715D5E868012809D111E066
:10236000E868B8B10120C8F80000FFF767FB06462F
:1023700005E002E1FFF762FB801B0228C0D820685D
:102380008007F7D52068296920F0F80040EAC100ED
:1023900020600DE0C8F80090FFF750FB064604E00F
:1023A000FFF74CFB801B02281FD820688007F7D45A
:1023B0002878000722D5724E744869696C3671B16D
:1023C00001210160FFF73AFB074604E0FFF736FB07
:1023D000C01B022809D830688007F7D50EE0C0F886
:1023E0000090FFF72BFB074605E083E0FFF726FB95
:1023F000C01B02287ED830688007F7D428784007B1
:1024000068D5DFF87CA100270AF1380ADAF8000065
:10241000C0000BD4DAF8001041F08051CAF8001067
:10242000DAF80000012700F080500090584E306824
:10243000C00510D4306840F480703060FFF7FEFAB9
:10244000009005E0FFF7FAFA0099401A022851D8E7
:102450003068C005F6D54A4EA868683601280FD006
:102460000528306810D020F001003060306820F07E
:1024700004003060A868B8B1FFF7E0FA00900FE000
:10248000306840F00100F4E740F004003060F7E706
:10249000FFF7D4FA0099411A41F28830814264D89A
:1024A00030688007F4D50EE0FFF7C8FA009007E027
:1024B000FFF7C4FA0099411A41F28830814254D89A
:1024C00030688007F4D42FB1DAF8001021F0805181
:1024D000CAF80010A869C0B3DBF80010C1F381018D
:1024E00002294AD00228484607D0C8F86000FFF702
:1024F000A5FA00E039E005463AE04746C8F8600032
:10250000FFF79CFA064604E0FFF798FA801B0228C2
:102510002BD820688001F7D4D5E907010843A96AC0
:102520001C4A490802EB01416A6A41EA82110843E8
:1025300095F82C1040EA01611148001F016001204C
:102540003866FFF77BFA054605E014E0FFF776FAF8
:10255000401B022809D820688001F7D50BE000BF96
:10256000FFF76CFA401B022802D90320BDE8F88F60
:1025700020688001F4D40020F8E70120F6E700008D
:10258000083802400038024000004742800E4742AF
:10259000007000400000FFFF70B5040005D000256A
:1025A000A56294F8510010B106E0012070BD84F8D6
:1025B0005050204600F030F8022084F85100206886
:1025C000016821F040010160D4E901010843D4E928
:1025D00003121143084361690843218B01F4007120
:1025E0000843E1690843216A0843A16A0843216856
:1025F0000860A069042101EA1040616A084321686B
:1026000048602068C16921F40061C16165650120ED
:1026100084F85100002070BD2DE9F04387B00646D4
:1026200014216846FDF7B5FF34493068884261D10E
:1026300033480025016841F480510160006800F4CE
:10264000805005902E481438016841F00201016065
:10265000016801F002010591016841F0010101608A
:102660000068022400F001000590182001274FF0B7
:1026700003084FF005098DE8910369462148FFF7EB
:10268000FFF880208DE8910369461F48FFF7F8F8AE
:102690001F4C1E484FF0C0672060C4E901754FF41D
:1026A0008068C4E9035865617812A561C4E90750E0
:1026B00020466562FFF71EF808B1FEF796FBF4644A
:1026C000A663134C114860341830E4E80207402038
:1026D000A4E82101C00244F81459A561C4E90750D7
:1026E0000B4865626030FFF705F808B1FEF77DFB27
:1026F000B464A66307B0BDE8F08300000030014079
:10270000443802400004024000000240406402409D
:10271000E80800202DE9F84F044690F85000002703
:102720000A9E1D4692468B464FF0010901280ED0A5
:10273000012084F85000FFF781F9804694F8510099
:10274000616801280CD0B1F5827F07D102E0022038
:10275000BDE8F88FA16809B9042801D00227C2E0BA
:10276000BBF1000F27D0BAF1000F24D01DB394F8AD
:102770005100042802D0052084F851000020606533
:10278000C4F838A0E587A587C4F830B0E586A586EB
:102790002064606420680168490603D4016841F040
:1027A00040010160E068B0F5006F606805D0E8B3F3
:1027B000012D46D07FE0012795E008B1012D39D1E8
:1027C000206B21680088C860206B801C2063E08E2D
:1027D000401EE0862EE02068816889070FD5E18ED3
:1027E00069B1B9F1010F0AD1216B0988C160206B71
:1027F000801C2063E08E401EE0864FF000092068B8
:102800008168C9070CD0E18F51B1C068A16B088005
:10281000A06B801CA063E08F401EE0874FF0010991
:10282000FFF70CF9A0EB0800B04200E009E001D38B
:10283000701C50D1E08E0028CDD1E08F0028CAD185
:102840003FE0206B216800780873206B401C2063F8
:10285000E08E401EE0862EE02068816889070FD553
:10286000E18E69B1B9F1010F0AD1216B09780173C9
:10287000206B401C2063E08E401EE0864FF0000974
:1028800020688168C9070CD0E18F51B1C068A16B85
:102890000870A06B401CA063E08F401EE0874FF0E3
:1028A0000109FFF7CBF8A0EB0800B04202D3701C7F
:1028B00001D010E07EB1E08E0028CDD1E08F00285D
:1028C000CAD142463146204602F0FAFC28B101271F
:1028D0002020606507E0032705E0A06818B920689C
:1028E000C16880680090012084F85100002084F8BD
:1028F000500038462CE710B5401EB0F1807F01D360
:10290000012010BD4FF0E02460610F21601703F03B
:1029100039F90020A06107202061002010BD70B5AA
:1029200090F83C20012A19D0012400F83C4F0222E3
:10293000427050F83C3C5A689D6822F070060A6864
:102940004968324325F0800529435A6050F83C2CF1
:102950009160447000210170084670BD022070BD76
:1029600010B5040003D094F83D0010B107E0012039
:1029700010BD002084F83C00204600F00DF8022035
:1029800084F83D00211D206802F088FD012084F8B4
:102990003D00002010BD000008B500680C498842C9
:1029A00008D10C48016841F008010160006800F09E
:1029B00008000BE00849884209D10648001D01685B
:1029C00041F400310160006800F40030009008BD5F
:1029D000000C0040403802400044014070B50446FD
:1029E00090F83C00012817D0012584F83C500220C3
:1029F00084F83D002068826822F0770222F47F424A
:102A000082600868502830D00DDC20284DD005DCCD
:102A100098B310283BD148E0022070BD302844D044
:102A2000402834D139E0602828D0702806D0B0F58D
:102A3000805F2CD0B0F5005F29D10AE0CB68D1E9E6
:102A40000121206802F08EFD2068816841F0770145
:102A500009E0CB68D1E90121206802F083FD2068FC
:102A6000816841F48041816011E0CA68496820684A
:102A700002F04CFE5021206807E016E0CA68496861
:102A8000206802F054FE6021206802F075FD84F891
:102A90003D50002084F83C0070BDCA684968206839
:102AA00002F034FE40212068EFE72268014610461C
:102AB000EBE7000010B586B0044614216846FDF728
:102AC00068FD2368174C184902200122A34211D146
:102AD0000B6843F080030B600968CDE9022001F028
:102AE000800105914FF4E051CDE900100490694652
:102AF0000E4813E00E4CA34212D10B6843F02003A2
:102B00000B600968CDE9022001F020010591402108
:102B1000CDE900100320049069460648FEF7B0FE98
:102B200006B010BD000C004030380240001C0240CE
:102B3000004401400014024070B5044690F83C0087
:102B40000D4601280DD0012684F83C60022084F84F
:102B50003D0042B1042A18D0082A2AD00C2A4DD1AF
:102B600039E0022070BD206802F00EFD2068816906
:102B700041F0080181612068816921F004018161CF
:102B8000206881692A69114311E0206802F02CFD58
:102B90002068816941F4006181612068816921F4C4
:102BA00080618161206881692A6941EA022181612D
:102BB00024E0206802F04EFD2068C16941F0080160
:102BC000C1612068C16921F00401C1612068C16947
:102BD0002A69114311E0206802F070FD2068C16984
:102BE00041F40061C1612068C16921F48061C16163
:102BF0002068C1692A6941EA0221C16184F83D6007
:102C0000002084F83C0070BD10B5040003D094F897
:102C10003D0010B107E0012010BD002084F83C0009
:102C2000204600F00CF8022084F83D00211D2068A9
:102C300002F034FC012084F83D00002010BD7047F4
:102C400070B5040004D094F83900002510B106E0F6
:102C5000012070BD84F83850204600F023F824206D
:102C600084F839002068C16821F40051C160204611
:102C700002F070FD2068016921F490410161206833
:102C8000416921F02A0141612068C16841F4005185
:102C9000C160E563202084F8390084F83A00002000
:102CA00070BD00002DE9F04186B00646142168464B
:102CB000FDF76FFC4548DFF810C13168002502229E
:102CC0000123032407154FF40038614539D13F49EA
:102CD0001031D1F800C04CF4802CC1F800C0096854
:102CE00001F480210591016841F004010160006850
:102CF000694600F004000590A0028DE81D00072041
:102D000004903348FEF7BCFD334C32482060780411
:102D1000C4E90105C4E90357C0146561C4E906505C
:102D2000C4E908852046FEF7E5FC08B1FEF75DF82A
:102D30007463002205212720A663FFF783F927206B
:102D40003DE0DFF898C061453BD120491431D1F80E
:102D500000C04CF0200CC1F800C0096801F020014F
:102D60000591016841F0400101600068694600F08A
:102D7000400005904FF484408DE81D000820049029
:102D80001748FEF77DFD144C16486034206080051E
:102D9000C4E90105C4E903576561A561C4E90758A1
:102DA00020466562FEF7A6FC08B1FEF71EF87463C4
:102DB000002205214720A663FFF744F94720FFF7CB
:102DC00033F906B0BDE8F0810048004030380240D9
:102DD0000008024028600240A80A002000140140B8
:102DE0000018024028640240FEE701684A69D243A5
:102DF00052050FD46FF480624A61002140F8301F01
:102E0000202242738173026942F00402026101735D
:102E100001207047002070472DE9F84F04460068F4
:102E200089460B9D01689846174641F48061016010
:102E30002068016841F48071016000954FF0011A2B
:102E40000022514620460A9B00F0CAF8002853D1C0
:102E5000216809F0FE0008610AF1010B2B46594672
:102E600020460A9A00F0F0F8F0BB206841698069BA
:102E700000902A4620460A9900F064F940B1206C7F
:102E8000042839D12068016841F40071016033E001
:102E9000FEB2B8F1010F09D02168380A08612A464C
:102EA00020460A9900F04EF90028E8D12068066112
:102EB0002A4620460A9900F045F90028DFD120680B
:102EC000016841F48071016000950022514620465E
:102ED0000A9B00F085F838B9216809F0FF0040F03E
:102EE000010008612B4600E006E0594620460A9A98
:102EF00000F0AAF8002800D00120BDE8F88F0000FB
:102F00002DE9F843044600680D46DDE9089701689D
:102F10009846164641F4807101604B4600224FF0FE
:102F200001112046009700F05BF8E0B9216805F038
:102F3000FE0008613B464A461549204600F084F8E9
:102F400088B920684169806900903A464946204620
:102F500000F0F8F850B1206C042804D12068016812
:102F600041F4007101600120BDE8F883F5B2B8F1C9
:102F7000010F09D02168300A08613A4649462046C7
:102F800000F0E0F80028E6D1206805610020EBE7BA
:102F90000200010070B516460D4604460DE02046BD
:102FA000FFF723FF08B1012070BD681C05D0FEF7B4
:102FB00045FD801BA84207D835B120684069C04351
:102FC0004007ECD4002070BD002044F8300F2021D1
:102FD0006173A073216941F0200121612073E2E750
:102FE0002DE9F0471E4690460D460446C1F30747BB
:102FF000DDF8209008E0701C06D0FEF71FFDA0EB66
:103000000900B0420FD876B12068012F18D080692E
:1030100025EA00000004000C14D000214145EAD04C
:103020000020BDE8F087002044F8300F20216173B4
:10303000A073216941F02001216120730120F0E794
:103040004069E5E70121E9E72DE9F0479A46914615
:103050000E46044600254FF02008C1F3074725E03F
:1030600020684069C043400514D42068016841F4D9
:103070000071016021686FF480604861256384F805
:103080003D8084F83E50206C40F00400206484F8B9
:103090003C501FE0B9F1FF3F08D0FEF7CFFCA0EB9A
:1030A0000A0149450CD8B9F1000F09D02068012F59
:1030B00013D0806926EA00000004000C0BD0CFE793
:1030C00044F8305F84F80D80A573206940F020003B
:1030D000206125730120BDE8F0874069EAE72DE90A
:1030E000F041002590460E460446202717E040692F
:1030F000C043C0060CD454F8301B6FF01000486178
:1031000044F810596777A577206A2062257717E081
:10311000FEF794FCA0EB0800B04208D83EB120684E
:103120004169C9434906E2D40020BDE8F08144F872
:10313000305F6773A573206940F02000206125731C
:103140000120F2E770B516460D4604460DE0204614
:10315000FFF74BFE08B1012070BD681C05D0FEF7DB
:103160006DFC801BA84207D835B120684069C04378
:103170000006ECD4002070BD002044F8300F202160
:103180006173A073216941F0200121612073E2E79E
:10319000072000E0642003F0BBFDFDF743FB00289F
:1031A000F8D102E0642003F0B3FD03F08BFC0028AB
:1031B000F8D13B4AA2F11005101D9146291D804609
:1031C000FDF748FBDFED370A9FED370A374A00214C
:1031D00005F1340000F064FE05F12406321D291DBE
:1031E000A5F12800FDF76AFA002003F0C7FD05F0FD
:1031F000B7F82F4C2F4920611020C8610846FFF70F
:10320000CBF908B1FDF7F1FD294908222031A1F1E0
:10321000080001F0DDFF01202071871E39460120E2
:1032200004F0AEFA0128F9D12078000708D52078FB
:1032300020F0080020701E4841462130FDF7C2FAF8
:10324000607840070AD5607820F004006070144A66
:10325000291D1032A2F12A00FDF76AFAA078400772
:103260000CD5A07820F00400A07011484946163013
:10327000FDF7CAFB95ED040A03F088FB0848331DEF
:103280002A1D41469FED0C0A3838FDF727FA044BFA
:10329000203B1A1F111FA1F1100003F069FABDE7CE
:1032A000E06D00200080894500A08C45988B0008C7
:1032B000A8000020900800206F12833A30B5144B0C
:1032C0001C68656945F0400565611B68DC6844F071
:1032D0001004DC600F4B1C68256825F00105256093
:1032E0001C682568ED07F7D11D680B4CAC601C68A5
:1032F000E06018680161186842601868016841F46C
:10330000802101601868016841F00101016030BD51
:10331000680A0020080B00200414014000EB800123
:103320000F4810EBC1001AD00D490A6DCA654A6DED
:103330000A668A6D4A6601884ABA094950310A808C
:10334000428852BA4A80828852BA8A80C28852BA67
:10335000CA80028952BA0A81408940BA48817047BE
:10336000AA6E00200F4810B50D490160032141608D
:1033700000214FF410228160C0E903124FF40012C3
:103380004261017641768176C17601774177FDF71A
:1033900038FF002803D0BDE81040FDF726BD10BD62
:1033A00000640040EC0700200F4810B50D49016093
:1033B0000321416000214FF410228160C0E9031213
:1033C0004FF400124261017641768176C176017731
:1033D0004177FDF716FF002803D0BDE81040FDF748
:1033E00004BD10BD0068004014080020194808B54D
:1033F000016841F480010160016801F480010091DD
:10340000016841F4001101600068002200F400101E
:10341000009005210C20FEF715FE0C20FEF704FE9F
:10342000002205213920FEF70DFE3920FEF7FCFDB4
:10343000002205213A20FEF705FE3A20FEF7F4FDB2
:10344000002205213B20FEF7FDFDBDE808403B20A2
:10345000FEF7EABD3038024010B59CB01C22164978
:103460006846FDF75CF80021684603F05DFC134CEC
:1034700011491C22E0601C3107A8FDF750F800211B
:1034800007A803F051FC0C4920601C2238310EA81B
:10349000FDF745F800210EA803F046FC06496060E0
:1034A0001C22543115A8FDF73AF8002115A803F0A5
:1034B0003BFCA0601CB010BD088B00080000002081
:1034C0002DE9F04186B014216846FDF762F84E48B8
:1034D000016841F002010160016801F002010591FB
:1034E000016841F040010160016801F0400105916F
:1034F000016841F001010160016801F001010591DD
:10350000016841F008010160016801F008010591BE
:10351000016841F004010160016801F004010591B6
:10352000016841F080010160016801F080010591AE
:10353000016841F0200101600068344E00F0200075
:103540000590012240213046FEF772FA304F0122E9
:1035500010213846FEF76CFADFF8B88001221146D8
:103560004046FEF765FA01244020CDE900040294AC
:10357000694630460394FEF783F9274D0920CDE9CB
:103580000005694602943046FEF77AF91020CDE92D
:1035900000040226CDE9024669463846FEF770F976
:1035A0003020CDE90005694602941C48FEF768F911
:1035B000CDE902460094694640460194FEF760F961
:1035C000062100220846FEF73DFD0620FEF72CFDF1
:1035D000002205210920FEF735FD0920FEF724FD14
:1035E000002205210A20FEF72DFD0A20FEF71CFD12
:1035F000002205211720FEF725FD1720FEF714FDF8
:1036000006B0BDE8F08100003038024000180240EA
:1036100000000240000402400000211000080240A7
:103620000D4810B50B4901600C49416000214FF471
:1036300080428160C0E9031241618161C161016220
:10364000FEF702FA002803D0BDE81040FDF7CDBB1D
:1036500010BD0000005C00403C080020801A0600FD
:10366000104810B50E4901604FF48271416000218D
:1036700002228160C0E9031201224261520282618A
:103680003822C0E90721416281620A21C162FEF746
:1036900083FF002803D0BDE81040FDF7A6BB10BD96
:1036A000003001409008002010B588B01C21684609
:1036B000FCF76FFF144813490024C0E9001441F2DD
:1036C0008731C0E9024104618461FFF749F908B11B
:1036D000FDF78BFB0C48FFF797FA08B1FDF785FB68
:1036E0006020CDE900040294002269460648049453
:1036F000FFF722FA08B1FDF778FB0348FFF7DAF984
:1037000008B010BD00440140E809002010B58EB09B
:1037100000240794089409940A940B941C21684689
:103720000C94FCF736FF26482449C0E900144FF6F4
:10373000FF71C0E9024104618461FFF711F908B12A
:10374000FDF753FB4FF48050079007A91C48FFF783
:1037500045F908B1FDF749FB1948FFF755FA08B1DB
:10376000FDF743FB0B940BA915480C94FFF7D7F812
:1037700008B1FDF73AFB6020CDE900040294002275
:1037800069460F480494FFF7D7F908B1FDF72DFB00
:10379000042269460A48FFF7CFF908B1FDF725FB77
:1037A000082269460648FFF7C7F908B1FDF71DFB77
:1037B0000348FFF77FF90EB010BD0000000C004079
:1037C000A80900200D4810B50B4901600C49416063
:1037D00000214FF480628160C0E903120C22C0E92D
:1037E0000521C161FFF72CFA002803D0BDE8104085
:1037F000FDF7FBBA10BD000000480040280A002079
:10380000A08601000C4810B50A4901604FF4E1316F
:103810004160002181600C22C160C0E90412816115
:10382000C161FFF70DFA002803D0BDE81040FDF795
:10383000DCBA10BD00140140680A002010B5B5EED6
:10384000C03A2DED108BF0EE419AB0EE60AAF0EE8A
:1038500040AAF1EE10FA84B0044616D1F5EEC03A53
:10386000F1EE10FA11D1B5EEC04AF1EE10FA0CD11A
:1038700004B0B0EE691AF0EE4A0AB0EE6A0ABDEC86
:10388000108BBDE8104000F083B9F5EEC01AF1EEE0
:1038900010FA09D1B5EEC02AF1EE10FA04D1F5EE16
:1038A000C02AF1EE10FA7CD021EEA10A02EE020A43
:1038B00002EEA20A03F0A8F821EE80FA62EE00EA16
:1038C00022EE80EA23EE030A03EEA30A04EE040AC2
:1038D00003F09AF8D4ED000A23EE009A63EE808A92
:1038E00060EEA01A24EE008AF0EE00FACDED031A85
:1038F00094ED010A94ED021AD4ED031A20EE80DA59
:1039000060EE81CA20EEA12A61EE01DA60EE002AA3
:1039100060EE010A20EE21CAB6EE000A21EEA1BA3D
:1039200030EE6D0A61EE21BA3CEE2C1A70EE4B1AA5
:10393000CDED021A21EE890A70EEC21A70EE820AEB
:10394000CDED011A08EEA10A60EE890A08EE010A1F
:10395000B6EE001A71EE621A20EE2F0A31EECB1A83
:10396000CDED001A20EE000A48EE810A3BEECD1A9A
:1039700048EE010A60EEAF0A00EEA00A10EE100A4F
:1039800005F046F841EC100B02F0F8FA51EC100B80
:1039900004F0ECFE3CEE6C0A00EE900A20EE091AF0
:1039A00000E08EE07BEE8D1AF6EE002A3CEE8C4AAB
:1039B0003DEE2B2A08EEA11ADDED001A704931EE1A
:1039C000ED3ADDED031A71EEE21A08EE031A71EE1C
:1039D0008B3ADDED021A21EE2F1A61EEA02ADDED01
:1039E000011A61EEA01A64EE200A41EE002A41EEAF
:1039F000021A41EE030A2EEEA31A0EEE421A28EE28
:103A0000A03A2FEE022A08EE613A0EEEC02A31EEFD
:103A1000031A2EEE003A29EE210AD1ED011A0FEE1B
:103A2000633A68EE223A08EEE20AF5EEC01A49EE71
:103A3000603A32EE000A73EE230AF1EE10FA2CDD42
:103A4000D1ED011A91ED022A61EE812ADFED4D1AC6
:103A500002EEA12A81ED022A91ED012A62EE202ACE
:103A600091ED032A02EEA12A81ED032A91ED012AAC
:103A700062EE002A91ED042A02EEA12A81ED042AC9
:103A8000D1ED021A7AEEA1AAD1ED031A3AEE21AADB
:103A9000D1ED041A79EEA19A07E0DFED3B1AC1EDF2
:103AA000021AC1ED031AC1ED041AD1ED001A41EE5C
:103AB00081AA91ED001A01EE20AAD1ED000A40EE94
:103AC000809A9FED320A94ED011A94ED022A6AEE73
:103AD000800A2AEE003A69EE802A94ED030A61EE2C
:103AE000603AD4ED001A42EE433A40EE623A73EE89
:103AF000A14A61EEA03AC4ED004A42EE223A40EEFD
:103B0000433A33EE814A61EE833A61EEA21A84EDC4
:103B1000014A41EE623A41EE031A40EE203A42EE8B
:103B2000601A73EE823A71EE800A24EEA40AC4EDA4
:103B3000023AC4ED030A04EE040A03EEA30A00EEFF
:103B4000A00A02F061FFD4ED000A60EE800AC4ED25
:103B5000000AD4ED010A60EE800AC4ED010AD4ED3A
:103B6000020A60EE800AC4ED020AD4ED030A20EED8
:103B7000800A84ED030A04B0BDEC108B10BD000078
:103B8000F80000206F12833A000000006F12033A21
:103B9000F5EEC01AB0EE413AF0EE603AB0EE404AAF
:103BA000F1EE10FA00B5024609D1B5EEC02AF1EEE9
:103BB00010FA04D1F5EEC02AF1EE10FA78D021EE19
:103BC000A10A02EE020A02EEA20A02F01DFF21EE95
:103BD000805A62EE004A92ED011AD2ED030A22EEFB
:103BE000800AD2ED002A21EE202AD2ED021A22EE1E
:103BF000811A5C4802EEE12A01EEA01AF6EE001AE4
:103C000052EEA21A40EEA01A60EE020A64EEA12A59
:103C100045EE610A40EE412A25EE010A90ED011AB7
:103C200004EEC20AB5EEC01AF1EE10FA2CDD90EDEA
:103C3000011AD0ED021A21EE222A9FED4B1A42EE14
:103C4000011AC0ED021AD0ED011A21EEA02AD0ED22
:103C5000031A42EE011AC0ED031AD0ED011A21EE4B
:103C6000802AD0ED041A42EE011AC0ED041A90ED3C
:103C7000021A34EE014A90ED031A73EE813A90ED88
:103C8000041A33EE013A07E09FED381A80ED021A6C
:103C900080ED031A80ED041A90ED001A01EE224A1D
:103CA00090ED001A41EE203AD0ED000A00EE803A85
:103CB0009FED2F0AD2ED021A24EE002A63EE802A2D
:103CC00023EE001A92EC020A92ED033A60EEC23A39
:103CD00041EEE23A43EE413A73EE804A60EE023A38
:103CE000C2ED004A41EE813A43EE623A33EEA04A19
:103CF00060EE223A20EE010A82ED014A40EEC13A1E
:103D000000EEA20A43EE023A01EEC20A73EEA13AB5
:103D100070EE030A24EEA40AC2ED023AC2ED030AD1
:103D200004EE040A03EEA30A00EEA00A02F06CFE01
:103D3000D2ED000A60EE800AC2ED000AD2ED010A5F
:103D400060EE800AC2ED010AD2ED020A60EE800A3E
:103D5000C2ED020AD2ED030A20EE800A82ED030AC8
:103D600000BD0000F80000206F12833A0000000040
:103D70006F12033AFEE77047A0B1D0ED101AC0ED04
:103D8000111A90ED0F1A80ED101AC0ED060A80EDA1
:103D9000070A30EEC00A80ED0F0A017829B1012927
:103DA0003BD078E09FED3D0A7047D0ED010A60EE10
:103DB000801AC0ED091AD0ED0A0A90ED022A42EEEF
:103DC000000A30EE410AC0ED0A0A90ED0D2A80ED9E
:103DD0000E2A90ED0C2A80ED0D2A80ED0C0A90ED54
:103DE000031A21EE001A80ED0B1A90ED050AF4EE8D
:103DF000C00AF1EE10FA09DCB1EE400AF4EEC00A96
:103E0000F1EE10FA02D390ED0A0A01E080ED0A0A01
:103E100031EE800A30EE010A2BE070EE410A90ED9F
:103E2000012A20EE822A80ED092AD0ED020A60EEF6
:103E3000800AC0ED0A0AD0ED0D2A72EE200AC0ED0C
:103E40000E2AD0ED0C2AC0ED0D2AF0EE002A01EE6C
:103E5000620A30EE210A80ED0C0A90ED031A21EE81
:103E6000000A80ED0B0A30EE800AD0ED080A30EE31
:103E7000200A80ED080AD0ED040AB4EEE00AF1EE63
:103E800010FA06DCF1EE600AB4EEE00AF1EE10FA88
:103E900001D2C0ED080A90ED080A7047000000004A
:103EA000002828D0002A26D0017092ED001A80ED5B
:103EB000011A92ED011A80ED021A92ED021A80EDBC
:103EC000031A80ED040A9FED0C0AC0ED050A80ED8F
:103ED0000E0A80ED0D0A80ED0C0A80ED080A80EDD7
:103EE0000B0A80ED0A0A80ED090A80ED110A80EDC7
:103EF000100A80ED0F0A70470000000030B5144B27
:103F00001C68656945F0400565611B68DC6844F024
:103F10001004DC600F4B1C68256825F00105256046
:103F20001C682568ED07F7D11D680B4CAC601C6858
:103F3000E06018680161186842601868016841F41F
:103F4000802101601868016841F00101016030BD05
:103F5000280A0020A80A0020044800402DE9F74F55
:103F6000F84981B00868026822F001020260F64850
:103F70000268136823F00103136003E00A6822F06B
:103F800001020A60EF4909680A68D207F6D103E026
:103F9000016821F001010160EB4800680168C90770
:103FA000F6D1EA48EA4AEB4BD0F84C90E84CE94DA0
:103FB000E74EE84FDFF898E3DFF894C3D9F8000044
:103FC000E449483A603318341835303E78374FF4B6
:103FD000006A0CF1300C704535D9884205D090420A
:103FE00003D0984201D0A04201D1202026E0A8426F
:103FF00005D0B04203D0B84201D0604501D150464F
:104000001CE0DFF8508308F13008404511D0DFF89C
:104010004083A8F1180840450BD0DFF8388308F139
:104020009008404505D0DFF8288308F1480840454E
:1040300002D14FF4001001E04FF00060DFF8108370
:10404000A8F14C083AE0DFF80C8308F1A8084045D5
:1040500037D9884205D0904203D0984201D0A0427F
:1040600001D1202026E0A84205D0B04203D0B842BA
:1040700001D0604501D150461CE0DFF8D88208F13C
:104080003008404511D0DFF8C882A8F11808404533
:104090000BD0DFF8C08208F19008404505D0DFF86A
:1040A000B08208F14808404502D14FF4001001E009
:1040B0004FF00060DFF89882A8F15008C8F80000BF
:1040C00074E0DFF8908208F14808404537D988420B
:1040D00005D0904203D0984201D0A04201D12020C7
:1040E00026E0A84205D0B04203D0B84201D06045D6
:1040F00001D150461CE0DFF85C8208F130084045F1
:1041000011D0DFF84C82A8F1180840450BD0DFF839
:10411000448208F19008404505D0DFF8348208F168
:104120004808404502D14FF4001001E04FF0006014
:10413000DFF82082A8F11008C8F80C0036E08842A9
:1041400005D0904203D0984201D0A04201D1202056
:1041500026E0A84205D0B04203D0B84201D0604565
:1041600001D150461CE0DFF8EC8108F130084045F1
:1041700011D0DFF8DC81A8F1180840450BD0DFF83A
:10418000D48108F19008404505D0DFF8C48108F1DA
:104190004808404502D14FF4001001E04FF00060A4
:1041A000DFF8B081A8F11008C8F80800D9F80000BD
:1041B0004FF4806B704535D9884205D0904203D0CA
:1041C000984201D0A04201D1102026E0A84205D09B
:1041D000B04203D0B84201D0604501D158461CE03E
:1041E000DFF8708108F13008404511D0DFF86081B8
:1041F000A8F1180840450BD0DFF8588108F1900865
:10420000404505D0DFF8488108F14808404502D113
:104210004FF4801001E04FF08060DFF83481A8F1A6
:104220004C083AE0DFF82C8108F1A808404537D95E
:10423000884205D0904203D0984201D0A04201D1DB
:10424000102026E0A84205D0B04203D0B84201D0E9
:10425000604501D158461CE0DFF8F88008F13008CD
:10426000404511D0DFF8E880A8F1180840450BD090
:10427000DFF8E08008F19008404505D0DFF8D080F5
:1042800008F14808404502D14FF4801001E04FF09A
:104290008060DFF8BC80A8F15008C8F800007AE020
:1042A000DFF8B08008F14808404537D9884205D08A
:1042B000904203D0984201D0A04201D1102026E0C4
:1042C000A84205D0B04203D0B84201D0604501D128
:1042D00058461CE0DFF87C8008F13008404511D0DA
:1042E000DFF86C80A8F1180840450BD0DFF8648037
:1042F00008F19008404505D0DFF8548008F14808DF
:10430000404502D14FF4801001E04FF08060DFF8AB
:104310004480A8F11008C8F80C003CE0884205D0A1
:10432000904203D0984201D0A04201D110202CE04D
:10433000A84205D0B04203D0B84201D060450BD1AD
:10434000584622E0E8080020480900209008002094
:104350005864024010600240DFF8688940450FD081
:10436000DFF8648940450BD0DFF8588908F1600810
:10437000404505D0DFF8508908F16008404502D17A
:104380004FF4801001E04FF08060DFF83889A8F129
:104390004008C8F80800D9F80000704532D98842B2
:1043A00005D0904203D0984201D0A04201D108200C
:1043B00023E0A84205D0B04203D0B84201D0604506
:1043C00002D14FF4007018E0DFF8F88840450FD0B4
:1043D000DFF8F48840450BD0DFF8E88808F1600882
:1043E000404505D0DFF8E08808F16008404502D17B
:1043F0004FF4002001E04FF00070DFF8CC88A8F106
:10440000340837E0DFF8BC8808F17808404534D933
:10441000884205D0904203D0984201D0A04201D1F9
:10442000082023E0A84205D0B04203D0B84201D012
:10443000604502D14FF4007018E0DFF888884045ED
:104440000FD0DFF8848840450BD0DFF8788808F17A
:104450006008404505D0DFF8708808F160084045E5
:1044600002D14FF4002001E04FF00070DFF85888CF
:10447000A8F13808C8F800006EE0DFF8488808F1B5
:104480001808404534D9884205D0904203D098425C
:1044900001D0A04201D1082023E0A84205D0B042BB
:1044A00003D0B84201D0604502D14FF4007018E04B
:1044B000DFF8108840450FD0DFF80C8840450BD05E
:1044C000DFF8008808F16008404505D0DFF8F8877C
:1044D00008F16008404502D14FF4002001E04FF0A0
:1044E0000070DFF8E087A8F14008C8F80C0033E05E
:1044F000884205D0904203D0984201D0A04201D119
:10450000082023E0A84205D0B04203D0B84201D031
:10451000604502D14FF4007018E0DFF8A8874045ED
:104520000FD0DFF8A48740450BD0DFF8988708F15B
:104530006008404505D0DFF8908708F160084045E5
:1045400002D14FF4002001E04FF00070DFF87487D3
:10455000A8F14008C8F80800DFF86C87D9F8000017
:1045600008F118084FF4807E404531D9884205D0C3
:10457000904203D0984201D0A04201D1042022E011
:10458000A84205D0B04203D0B84201D0604501D165
:10459000704618E0DFF82C8740450FD0DFF82887F9
:1045A00040450BD0DFF81C8708F16008404505D076
:1045B000DFF8148708F16008404502D14FF48020ED
:1045C00001E04FF08070DFF80087A8F1340836E092
:1045D000DFF8F08608F17808404533D9884205D0E5
:1045E000904203D0984201D0A04201D1042022E0A1
:1045F000A84205D0B04203D0B84201D0604501D1F5
:10460000704618E0DFF8BC8640450FD0DFF8B8866A
:1046100040450BD0DFF8AC8608F16008404505D076
:10462000DFF8A48608F16008404502D14FF48020ED
:1046300001E04FF08070DFF89086A8F13808C8F8E4
:1046400000006CE0DFF87C8608F11808404533D99B
:10465000884205D0904203D0984201D0A04201D1B7
:10466000042022E0A84205D0B04203D0B84201D0D5
:10467000604501D1704618E0DFF8488640450FD00C
:10468000DFF8448640450BD0DFF8388608F1600833
:10469000404505D0DFF8308608F16008404502D17A
:1046A0004FF4802001E04FF08070DFF81886A8F109
:1046B0004008C8F80C0032E0884205D0904203D090
:1046C000984201D0A04201D1042022E0A84205D0A6
:1046D000B04203D0B84201D0604501D1704618E025
:1046E000DFF8E08540450FD0DFF8DC8540450BD092
:1046F000DFF8D08508F16008404505D0DFF8C885AF
:1047000008F16008404502D14FF4802001E04FF0ED
:104710008070DFF8B085A8F14008C8F80800DFF81D
:10472000A885D9F8000008F118084FF480394045F1
:1047300030D9884205D0904203D0984201D0A0429F
:1047400001D1012021E0A84205D0B04203D0B842F7
:1047500001D0604501D1402017E0DFF86885404571
:104760000FD0DFF8648540450BD0DFF8588508F19D
:104770006008404505D0DFF8508508F160084045E5
:1047800001D1484601E04FF48000DFF83C85A8F1F4
:10479000340835E0DFF82C8508F17808404532D937
:1047A000884205D0904203D0984201D0A04201D166
:1047B000012021E0A84205D0B04203D0B84201D088
:1047C000604501D1402017E0DFF8F88440450FD064
:1047D000DFF8F48440450BD0DFF8E88408F1600886
:1047E000404505D0DFF8E08408F16008404501D17C
:1047F000484601E04FF48000DFF8CC84A8F1380887
:10480000C8F800006AE0DFF8BC8408F118084045E9
:1048100032D9884205D0904203D0984201D0A042BC
:1048200001D1012021E0A84205D0B04203D0B84216
:1048300001D0604501D1402017E0DFF88884404571
:104840000FD0DFF8848440450BD0DFF8788408F17E
:104850006008404505D0DFF8708408F160084045E5
:1048600001D1484601E04FF48000DFF85884A8F1F8
:104870004008C8F80C0031E0884205D0904203D0CF
:10488000984201D0A04201D1012021E0A84205D0E8
:10489000B04203D0B84201D0604501D1402017E0BA
:1048A000DFF8208440450FD0DFF81C8440450BD052
:1048B000DFF8108408F16008404505D0DFF808846F
:1048C00008F16008404501D1484601E04FF48000FE
:1048D000DFF8F083A8F14008C8F80800FB48DFF8CB
:1048E000E883806C009008F118080068404531D9D1
:1048F000884205D0904203D0984201D0A04201D115
:10490000202022E0A84205D0B04203D0B84201D016
:10491000604501D1504618E0DFF8A88340450FD02C
:10492000DFF8A48340450BD0DFF8988308F16008D6
:10493000404505D0DFF8908308F16008404502D17A
:104940004FF4001001E04FF00060DFF87C83A8F125
:10495000340836E0DFF86C8308F17808404533D935
:10496000884205D0904203D0984201D0A04201D1A4
:10497000202022E0A84205D0B04203D0B84201D0A6
:10498000604501D1504618E0DFF8388340450FD02C
:10499000DFF8348340450BD0DFF8288308F1600846
:1049A000404505D0DFF8208308F16008404502D17A
:1049B0004FF4001001E04FF00060DFF80C83A8F125
:1049C0003808C8F800006CE0DFF8F88208F1180831
:1049D000404533D9884205D0904203D0984201D057
:1049E000A04201D1202022E0A84205D0B04203D04D
:1049F000B84201D0604501D1504618E0DFF8C482CA
:104A000040450FD0DFF8C08240450BD0DFF8B482BC
:104A100008F16008404505D0DFF8AC8208F1600875
:104A2000404502D14FF4001001E04FF00060DFF884
:104A30009482A8F14008C8F80C0032E0884205D002
:104A4000904203D0984201D0A04201D1202022E020
:104A5000A84205D0B04203D0B84201D0604501D190
:104A6000504618E0DFF85C8240450FD0DFF85882EE
:104A700040450BD0DFF84C8208F16008404505D076
:104A8000DFF8448208F16008404502D14FF400107D
:104A900001E04FF00060DFF82C82A8F14008C8F870
:104AA00008000098DFF820A200680AF1180A5045B3
:104AB00031D9884205D0904203D0984201D0A0421B
:104AC00001D1102022E0A84205D0B04203D0B84264
:104AD00001D0604501D1584618E0DFF8E881404533
:104AE0000FD0DFF8E48140450BD0DFF8D88108F122
:104AF0006008404505D0DFF8D08108F160084045E6
:104B000002D14FF4801001E04FF08060DFF8B881EF
:104B1000A8F1340836E0DFF8AC8108F178084045A8
:104B200033D9884205D0904203D0984201D0A042A8
:104B300001D1102022E0A84205D0B04203D0B842F3
:104B400001D0604501D1584618E0DFF87881404532
:104B50000FD0DFF8748140450BD0DFF8688108F191
:104B60006008404505D0DFF8608108F160084045E5
:104B700002D14FF4801001E04FF08060DFF84881EF
:104B8000A8F13808C8F800006CE0DFF8388108F1B7
:104B90001808404533D9884205D0904203D0984246
:104BA00001D0A04201D1102022E0A84205D0B0429D
:104BB00003D0B84201D0604501D1584618E0DFF873
:104BC000048140450FD0DFF8008140450BD0DFF86D
:104BD000F48008F16008404505D0DFF8EC8008F16A
:104BE0006008404502D14FF4801001E04FF0806032
:104BF000DFF8D080A8F14008C8F80C0032E0884205
:104C000005D0904203D0984201D0A04201D110209B
:104C100022E0A84205D0B04203D0B84201D060459E
:104C200001D1584618E0DFF89C8040450FD0DFF8EE
:104C3000988040450BD0DFF88C8008F16008404533
:104C400005D0DFF8848008F16008404502D14FF4B8
:104C5000801001E04FF08060DFF86880A8F1400824
:104C6000C8F8080000980068504536D9884205D039
:104C7000904203D0984201D0A04201D1082029E0FF
:104C8000A84205D0B04203D0B84201D0604502D15D
:104C90004FF400701EE0DFF82C8040450FD0DFF8A5
:104CA000288040450BD0DFF81C8008F160084045A3
:104CB00005D0DFF8148008F16008404508D14FF4B2
:104CC000002007E04060024040640240900800205D
:104CD0004FF00070DFF8E88439E0DFF8E884404501
:104CE00038D9884205D0904203D0984201D0A042E2
:104CF00001D1082027E0A84205D0B04203D0B84235
:104D000001D0604502D14FF400701CE0DFF8B4849C
:104D1000A8F17808404511D0DFF8A48408F13408E0
:104D200040450BD0DFF89C84A8F11808404505D019
:104D3000DFF88C8408F19408404502D14FF400203C
:104D400001E04FF00070DFF87884A8F10408C8F89B
:104D5000000076E0DFF86C84A8F16008404538D99F
:104D6000884205D0904203D0984201D0A04201D1A0
:104D7000082027E0A84205D0B04203D0B84201D0B5
:104D8000604502D14FF400701CE0DFF83884A8F1D0
:104D90007808404511D0DFF8288408F134084045F0
:104DA0000BD0DFF82084A8F11808404505D0DFF8C3
:104DB000108408F19408404502D14FF4002001E02E
:104DC0004FF00070DFF8FC83A8F1B808C8F80C00B9
:104DD00037E0884205D0904203D0984201D0A042EB
:104DE00001D1082027E0A84205D0B04203D0B84244
:104DF00001D0604502D14FF400701CE0DFF8C4839D
:104E0000A8F17808404511D0DFF8B48308F13408E0
:104E100040450BD0DFF8AC83A8F11808404505D019
:104E2000DFF89C8308F19408404502D14FF400203C
:104E300001E04FF00070DFF88C83A8F1B808C8F8E3
:104E4000080000980068504533D9884205D0904248
:104E500003D0984201D0A04201D1042026E0A8420C
:104E600005D0B04203D0B84201D0604501D17046B0
:104E70001CE0DFF85083A8F17808404511D0DFF836
:104E8000408308F1340840450BD0DFF83883A8F19F
:104E90001808404505D0DFF8288308F194084045FC
:104EA00002D14FF4802001E04FF08070DFF81083D2
:104EB00038E0DFF81083404537D9884205D090426A
:104EC00003D0984201D0A04201D1042026E0A8429C
:104ED00005D0B04203D0B84201D0604501D1704640
:104EE0001CE0DFF8E082A8F17808404511D0DFF837
:104EF000D08208F1340840450BD0DFF8C882A8F111
:104F00001808404505D0DFF8B88208F194084045FC
:104F100002D14FF4802001E04FF08070DFF8A082D2
:104F2000A8F10408C8F8000074E0DFF89882A8F13E
:104F30006008404537D9884205D0904203D0984256
:104F400001D0A04201D1042026E0A84205D0B04201
:104F500003D0B84201D0604501D170461CE0DFF8B3
:104F60006482A8F17808404511D0DFF8548208F136
:104F7000340840450BD0DFF84C82A8F118084045B2
:104F800005D0DFF83C8208F19408404502D14FF487
:104F9000802001E04FF08070DFF82882A8F1B80887
:104FA000C8F80C0036E0884205D0904203D0984201
:104FB00001D0A04201D1042026E0A84205D0B04291
:104FC00003D0B84201D0604501D170461CE0DFF843
:104FD000F481A8F17808404511D0DFF8E48108F1A8
:104FE000340840450BD0DFF8DC81A8F118084045B3
:104FF00005D0DFF8CC8108F19408404502D14FF488
:10500000802001E04FF08070DFF8B881A8F1B80887
:10501000C8F8080000980068504529D9884205D092
:10502000904203D0984201D0A04201D101201DE05E
:10503000A84205D0B04203D0B84201D0604501D1AA
:10504000402013E05F49783988420BD05C49343105
:10505000884207D05B491839884203D058499431B7
:10506000884201D1484601E04FF4800054492DE0C8
:10507000DFF8508140452BD9884205D0904203D0BB
:10508000984201D0A04201D101201DE0A84205D0E4
:10509000B04203D0B84201D0604501D1402013E0B6
:1050A0004849783988420BD045493431884207D085
:1050B00044491839884203D041499431884201D18A
:1050C000484601E04FF480003D49091F08605CE05C
:1050D000DFF8F080A8F1600840452BD9884205D060
:1050E000904203D0984201D0A04201D101201DE09E
:1050F000A84205D0B04203D0B84201D0604501D1EA
:10510000402013E02F49783988420BD02C493431A4
:10511000884207D02B491839884203D02849943156
:10512000884201D1484601E04FF480002549B83952
:10513000C8602AE0884205D0904203D0984201D04E
:10514000A04201D101201DE0A84205D0B04203D009
:10515000B84201D0604501D1402013E019497839A7
:1051600088420BD016493431884207D01549183986
:10517000884203D012499431884201D1484601E067
:105180004FF480000F49B83988600F4802990268CF
:10519000D1600E49019A0B68DA600368039A5A607D
:1051A0000B68039A5A600068026842F001020260CC
:1051B0000868016841F001010160BDE8FF8F00004F
:1051C0000C640240B8600240E80800204809002052
:1051D0002DE9F04F8346344803685C6844F00204CC
:1051E0005C6003685C6844F001045C60006803680C
:1051F00043F0400303602D4803681C6824F0010459
:105200001C6003681C68E407F7D1294E294C284D1F
:105210004C3EDFF8A0A0274FB83C4FF4001CA6F18D
:105220000409AAF1600AAB4202D9C6F800C00BE03B
:10523000BB4202D9C9F800C006E0534502D9C4F800
:105240000CC001E0C4F808C0DFF86CC0C3F808C0A7
:105250000368D96001684A600068016841F0100184
:105260000160164801680B6823F001030B600168B8
:105270000B68DB07F7D14FF00063A94201D9336017
:1052800009E0B94202D9C9F8003004E0514501D91A
:10529000E36000E0A360C1F808C00368C3F80CB085
:1052A00000684260BDE8F08F90080020E808002008
:1052B00058640240B86002400C30014048090020A8
:1052C00038B504461248134B0068B0FBF3F04FF4B6
:1052D0007A73584300906068B0F5827F0DD10B4619
:1052E000009200228021204600F016F870B1606D17
:1052F00040F020006065032038BD009830B1401EAA
:10530000009020688068C0430006F6D5002038BDB4
:105310002000002000366E012DE9F0411D461746A1
:105320000E460446DDF8188008E0681C06D0FCF73D
:1053300085FBA0EB0800A8420BD255B1206880681D
:1053400036EA000030D00020B842EED10020BDE89F
:10535000F0812068416821F0E00141606068B0F5AB
:10536000827F0BD1A068B0F5004F02D0B0F5806FFE
:1053700004D12068016821F040010160A06AB0F505
:10538000005F09D12068016821F4005101602068A4
:10539000016841F400510160012084F851000020AF
:1053A00084F850000320D2E70120CDE710B5FCF7C8
:1053B000DDFD03F017F8012803D0BDE8104002F02E
:1053C000FBBC10BD30B593B030216846FBF7E1F867
:1053D00014210CA8FBF7DDF819480025016841F0FD
:1053E00080510160006800F08050119015480168FC
:1053F00041F4804101600068022400F48040119073
:1054000001200090000401908001CDE906400620B3
:105410000890A820CDE9090407200B906846FCF706
:105420002DFF0CA90F2081E831004FF4A0500F9000
:10543000E002109005210CA8FCF736FE13B030BD39
:1054400040380240007000401048016841F470018B
:1054500001600F48016841F0010101600C4A002120
:105460000832116002680B4B1A400260031D0A4AA1
:105470001A60026822F48022026005480C30016044
:1054800002495806803908607047000088ED00E046
:1054900000380240FFFFF6FE10300024F0B502682D
:1054A000254C264D264E274F274B4FF0804CA042CF
:1054B00009D0604507D0A84205D0B04203D0B84219
:1054C00001D0984204D122F0700E4A6842EA0E02DE
:1054D000A0421BD0604519D0A84217D0B04215D0C9
:1054E000B84213D0984211D0184DA8420ED0184D92
:1054F000A8420BD0174DA84208D0174DA84205D09E
:10550000164DA84202D0164DA84203D122F4407590
:10551000CA682A434D6922F080022A4302608A68E1
:10552000C2620A688262A04201D0984201D1096930
:10553000016301214161F0BD000001400004004011
:1055400000080040000C0040000401400040014001
:10555000004401400048014000180040001C004089
:105560000020004010B5846842EA032224F47F44FE
:105570000A432243826010BD826822F070020A430F
:1055800042F0070181607047F0B5026A22F0010223
:105590000262036A42688469124E24F073050C6843
:1055A0002C4323F002058B682B430D4DA84201D0FC
:1055B000B04205D123F00807CB683B4323F0040336
:1055C000A84201D0B04205D14D6922F44072154382
:1055D0008A692A4342608461496841630362F0BD7D
:1055E0000000014000040140F0B5026A22F0100200
:1055F0000262026A436884690D6824F4E64444EA5E
:1056000005248D6822F0200242EA05120F4D104E4B
:10561000A84201D0B04206D1CF6822F0800242EA0F
:10562000071222F04002A84201D0B04207D14D69D2
:1056300023F4406343EA85038D6943EA85034360AD
:105640008461496881630262F0BD0000000001408E
:1056500000040140F0B5026A22F480720262026A1C
:105660004368C46922F4007224F073050C68124E7A
:105670002C438D6842EA05220E4DA84201D0B0426B
:1056800006D1CF6822F4006242EA072222F4806247
:10569000A84201D0B04207D14D6923F4405343EAF8
:1056A00005138D6943EA05134360C4614968C1630A
:1056B0000262F0BD000001400004014030B5026A02
:1056C00022F480520262046A4268C3690D6823F4BE
:1056D000E64343EA05238D6824F4005444EA053484
:1056E000084DA84202D0084DA84204D14D6922F4C9
:1056F000804242EA85124260C361496801640462E3
:1057000030BD0000000001400004014010B5036AF4
:10571000046A24F001040462846924F0F00444EA79
:10572000021423F00A020A438461026210BD10B51C
:10573000036A23F0100303628369046A23F470434D
:1057400043EA023224F0A00343EA011182610162BC
:1057500010BD00002DE9F041044600680169E268CF
:1057600021F44051114301612169A068E2690843B5
:105770006169114322680843D16849F20C63994377
:105780000143D16020684169A26921F4407111434D
:105790004161E2696425B2F5004F97489749226854
:1057A0004FF032083FD08A4201D082427CD1FCF7D0
:1057B00023FD00EBC00101EB001061688900B0FB24
:1057C000F1F6FCF719FD00EBC00101EB0010616878
:1057D0008900B0FBF1F0B0FBF5F06FF01801484321
:1057E00006EB800108EB0110B0FBF5F000F0F006CD
:1057F000FCF702FD00EBC00101EB001061688900BD
:10580000B0FBF1F0B0FBF5F006EB0016FCF7F4FC92
:1058100000EBC00101EB001061688900B0FBF1F7FB
:10582000FCF7EAFCD2E08A4201D082423DD1FCF78B
:10583000E3FC00EBC00101EB001061684900B0FB24
:10584000F1F0B0FBF5F00601FCF7D6FC00EBC0016F
:1058500001EB001061684900B0FBF1F7FCF7CCFCEC
:1058600000EBC00101EB001061684900B0FBF1F0F2
:10587000B0FBF5F06FF01801484307EB800108EB2F
:10588000C100B0FBF5F000F0F80006EB4006FCF7B5
:10589000B3FC00EBC00101EB001061684900B0FBF4
:1058A000F1F7FCF7A9FC3CE055E0FCF795FC00EBB8
:1058B000C00101EB001061684900B0FBF1F0B0FBE2
:1058C000F5F00601FCF788FC00EBC00101EB0010CD
:1058D00061684900B0FBF1F7FCF77EFC00EBC0010A
:1058E00001EB001061684900B0FBF1F0B0FBF5F08E
:1058F0006FF01801484307EB800108EBC100B0FBD3
:10590000F5F000F0F80006EB4006FCF765FC00EB54
:10591000C00101EB001061684900B0FBF1F7FCF732
:105920005BFC00EBC00101EB001061684900B0FBBB
:10593000F1F0B0FBF5F06FF01801484307EB800180
:1059400008EBC100B0FBF5F000F00700216830441F
:105950008860BDE8F081FCF73FFC00EBC00101EB83
:10596000001061688900B0FBF1F6FCF735FC00EB34
:10597000C00101EB001061688900B0FBF1F0B0FBE1
:10598000F5F06FF01801484306EB800108EB0110B9
:10599000B0FBF5F000F0F006FCF71EFC00EBC001D8
:1059A00001EB001061688900B0FBF1F0B0FBF5F08D
:1059B00006EB0016FCF710FC00EBC00101EB001039
:1059C00061688900B0FBF1F7FCF706FC00EBC00151
:1059D00001EB001061688900B0FBF1F0B0FBF5F05D
:1059E0006FF01801484307EB800108EB0110B0FB92
:1059F000F5F000F00F00A9E700140140001001408D
:105A0000264818B400680168890604D50168406812
:105A1000009018BC704722490968C906F9D5016889
:105A20004068204A0090106801684FF024030C037E
:105A30001D49046824F00104046016D41068446809
:105A4000C4F12404A4B20C8043601068016841F4DE
:105A5000002101601068016841F001010160122C11
:105A6000D7D1124901F1160015E014686068C0F141
:105A7000240080B2088063600D498B6A23F4002300
:105A80008B6211680A6842F001020A601228C0D1D4
:105A9000064901F13A0018BC01F0E2BD280A0020D5
:105AA00000480040A80A0020380100204C6E002069
:105AB00000600240244818B400680168890604D5D3
:105AC00001684068009018BC704720490968C90601
:105AD000F9D5016840681E4A0090106801684FF0CF
